{
  "contractName": "Todo",
  "abi": [
    {
      "inputs": [],
      "payable": false,
      "stateMutability": "nonpayable",
      "type": "constructor"
    },
    {
      "constant": true,
      "inputs": [],
      "name": "idCount",
      "outputs": [
        {
          "internalType": "uint256",
          "name": "",
          "type": "uint256"
        }
      ],
      "payable": false,
      "stateMutability": "view",
      "type": "function"
    },
    {
      "constant": true,
      "inputs": [
        {
          "internalType": "uint256",
          "name": "",
          "type": "uint256"
        }
      ],
      "name": "tasks",
      "outputs": [
        {
          "internalType": "uint256",
          "name": "id",
          "type": "uint256"
        },
        {
          "internalType": "string",
          "name": "task",
          "type": "string"
        },
        {
          "internalType": "bool",
          "name": "done",
          "type": "bool"
        }
      ],
      "payable": false,
      "stateMutability": "view",
      "type": "function"
    },
    {
      "constant": false,
      "inputs": [
        {
          "internalType": "string",
          "name": "_task",
          "type": "string"
        }
      ],
      "name": "addTask",
      "outputs": [],
      "payable": false,
      "stateMutability": "nonpayable",
      "type": "function"
    }
  ],
  "bytecode": "0x608060405234801561001057600080fd5b50600060018190555061041a806100286000396000f3fe608060405234801561001057600080fd5b50600436106100415760003560e01c806367238562146100465780638d97767214610101578063e6e46238146101ba575b600080fd5b6100ff6004803603602081101561005c57600080fd5b810190808035906020019064010000000081111561007957600080fd5b82018360208201111561008b57600080fd5b803590602001918460018302840111640100000000831117156100ad57600080fd5b91908080601f016020809104026020016040519081016040528093929190818152602001838380828437600081840152601f19601f8201169050808301925050505050505091929192905050506101d8565b005b61012d6004803603602081101561011757600080fd5b810190808035906020019092919050505061026b565b604051808481526020018060200183151515158152602001828103825284818151815260200191508051906020019080838360005b8381101561017d578082015181840152602081019050610162565b50505050905090810190601f1680156101aa5780820380516001836020036101000a031916815260200191505b5094505050505060405180910390f35b6101c261033a565b6040518082815260200191505060405180910390f35b60016000815480929190600101919050555060405180606001604052806001548152602001828152602001600015158152506000806001548152602001908152602001600020600082015181600001556020820151816001019080519060200190610244929190610340565b5060408201518160020160006101000a81548160ff02191690831515021790555090505050565b6000602052806000526040600020600091509050806000015490806001018054600181600116156101000203166002900480601f01602080910402602001604051908101604052809291908181526020018280546001816001161561010002031660029004801561031d5780601f106102f25761010080835404028352916020019161031d565b820191906000526020600020905b81548152906001019060200180831161030057829003601f168201915b5050505050908060020160009054906101000a900460ff16905083565b60015481565b828054600181600116156101000203166002900490600052602060002090601f016020900481019282601f1061038157805160ff19168380011785556103af565b828001600101855582156103af579182015b828111156103ae578251825591602001919060010190610393565b5b5090506103bc91906103c0565b5090565b6103e291905b808211156103de5760008160009055506001016103c6565b5090565b9056fea265627a7a7231582012f587f07fa5250a9a60a67373db9bd693ca4532bcfe502013b79d30bf72d5d564736f6c63430005100032",
  "source": "// SPDX-License-Identifier: MIT\r\npragma solidity >=0.4.22 <0.8.0;\r\n\r\ncontract Todo {\r\n    struct Task {\r\n        uint256 id;\r\n        string task;\r\n        bool done;\r\n    }\r\n\r\n    mapping(uint256 => Task) public tasks;\r\n\r\n    uint256 public idCount;\r\n\r\n    constructor() public {\r\n        idCount = 0;\r\n    }\r\n\r\n    function addTask(string memory _task) public {\r\n        idCount++;\r\n        tasks[idCount] = Task(idCount, _task, false);\r\n    }\r\n}\r\n",
  "sourcePath": "Z:/Sample Projects/EthereumAngularTodoList/EthereumTodoList/contracts/Todo.sol",
  "compiler": {
    "name": "solc",
    "version": "0.5.16+commit.9c3226ce.Emscripten.clang"
  },
  "schemaVersion": "3.2.3",
  "updatedAt": "2020-08-27T10:47:11.498Z",
  "networkType": "ethereum",
  "devdoc": {
    "methods": {}
  },
  "userdoc": {
    "methods": {}
  }
}