{
  "contractName": "Todo",
  "abi": [
    {
      "inputs": [],
      "payable": false,
      "stateMutability": "nonpayable",
      "type": "constructor"
    },
    {
      "constant": true,
      "inputs": [],
      "name": "id",
      "outputs": [
        {
          "internalType": "uint256",
          "name": "",
          "type": "uint256"
        }
      ],
      "payable": false,
      "stateMutability": "view",
      "type": "function"
    },
    {
      "constant": true,
      "inputs": [
        {
          "internalType": "uint256",
          "name": "",
          "type": "uint256"
        }
      ],
      "name": "tasks",
      "outputs": [
        {
          "internalType": "uint256",
          "name": "id",
          "type": "uint256"
        },
        {
          "internalType": "string",
          "name": "task",
          "type": "string"
        }
      ],
      "payable": false,
      "stateMutability": "view",
      "type": "function"
    },
    {
      "constant": false,
      "inputs": [
        {
          "internalType": "string",
          "name": "_task",
          "type": "string"
        }
      ],
      "name": "addTask",
      "outputs": [],
      "payable": false,
      "stateMutability": "nonpayable",
      "type": "function"
    }
  ],
  "bytecode": "0x608060405234801561001057600080fd5b5060006001819055506103d3806100286000396000f3fe608060405234801561001057600080fd5b50600436106100415760003560e01c806367238562146100465780638d97767214610101578063af640d0f146101af575b600080fd5b6100ff6004803603602081101561005c57600080fd5b810190808035906020019064010000000081111561007957600080fd5b82018360208201111561008b57600080fd5b803590602001918460018302840111640100000000831117156100ad57600080fd5b91908080601f016020809104026020016040519081016040528093929190818152602001838380828437600081840152601f19601f8201169050808301925050505050505091929192905050506101cd565b005b61012d6004803603602081101561011757600080fd5b8101908080359060200190929190505050610237565b6040518083815260200180602001828103825283818151815260200191508051906020019080838360005b83811015610173578082015181840152602081019050610158565b50505050905090810190601f1680156101a05780820380516001836020036101000a031916815260200191505b50935050505060405180910390f35b6101b76102f3565b6040518082815260200191505060405180910390f35b600160008154809291906001019190505550604051806040016040528060015481526020018281525060008060015481526020019081526020016000206000820151816000015560208201518160010190805190602001906102309291906102f9565b5090505050565b6000602052806000526040600020600091509050806000015490806001018054600181600116156101000203166002900480601f0160208091040260200160405190810160405280929190818152602001828054600181600116156101000203166002900480156102e95780601f106102be576101008083540402835291602001916102e9565b820191906000526020600020905b8154815290600101906020018083116102cc57829003601f168201915b5050505050905082565b60015481565b828054600181600116156101000203166002900490600052602060002090601f016020900481019282601f1061033a57805160ff1916838001178555610368565b82800160010185558215610368579182015b8281111561036757825182559160200191906001019061034c565b5b5090506103759190610379565b5090565b61039b91905b8082111561039757600081600090555060010161037f565b5090565b9056fea265627a7a72315820e926b4e3d680c2d54dab0bbd090f3ccd8f7d335122bb596f8551ff34ecea893b64736f6c63430005100032",
  "source": "// SPDX-License-Identifier: MIT\r\npragma solidity >=0.4.22 <0.8.0;\r\n\r\ncontract Todo {\r\n    struct Task {\r\n        uint256 id;\r\n        string task;\r\n    }\r\n\r\n    mapping(uint256 => Task) public tasks;\r\n\r\n    uint256 public id;\r\n\r\n    constructor() public {\r\n        id = 0;\r\n    }\r\n\r\n    function addTask(string memory _task) public {\r\n        id++;\r\n        tasks[id] = Task(id, _task);\r\n    }\r\n}\r\n",
  "sourcePath": "Z:/Sample Projects/EthereumAngularTodoList/EthereumTodoList/contracts/Todo.sol",
  "compiler": {
    "name": "solc",
    "version": "0.5.16+commit.9c3226ce.Emscripten.clang"
  },
  "schemaVersion": "3.2.3",
  "updatedAt": "2020-08-26T11:50:33.953Z",
  "networkType": "ethereum",
  "devdoc": {
    "methods": {}
  },
  "userdoc": {
    "methods": {}
  }
}