{
  "contractName": "Todo",
  "abi": [
    {
      "inputs": [],
      "payable": false,
      "stateMutability": "nonpayable",
      "type": "constructor"
    },
    {
      "anonymous": false,
      "inputs": [
        {
          "indexed": false,
          "internalType": "uint256",
          "name": "id",
          "type": "uint256"
        },
        {
          "indexed": false,
          "internalType": "string",
          "name": "task",
          "type": "string"
        },
        {
          "indexed": false,
          "internalType": "uint256",
          "name": "dateTimeCreated",
          "type": "uint256"
        },
        {
          "indexed": false,
          "internalType": "bool",
          "name": "done",
          "type": "bool"
        }
      ],
      "name": "TaskCreated",
      "type": "event"
    },
    {
      "constant": true,
      "inputs": [],
      "name": "idCount",
      "outputs": [
        {
          "internalType": "uint256",
          "name": "",
          "type": "uint256"
        }
      ],
      "payable": false,
      "stateMutability": "view",
      "type": "function"
    },
    {
      "constant": true,
      "inputs": [
        {
          "internalType": "uint256",
          "name": "",
          "type": "uint256"
        }
      ],
      "name": "tasks",
      "outputs": [
        {
          "internalType": "uint256",
          "name": "id",
          "type": "uint256"
        },
        {
          "internalType": "string",
          "name": "task",
          "type": "string"
        },
        {
          "internalType": "uint256",
          "name": "dateTimeCreated",
          "type": "uint256"
        },
        {
          "internalType": "bool",
          "name": "done",
          "type": "bool"
        }
      ],
      "payable": false,
      "stateMutability": "view",
      "type": "function"
    },
    {
      "constant": false,
      "inputs": [
        {
          "internalType": "string",
          "name": "_task",
          "type": "string"
        }
      ],
      "name": "addTask",
      "outputs": [],
      "payable": false,
      "stateMutability": "nonpayable",
      "type": "function"
    },
    {
      "constant": false,
      "inputs": [
        {
          "internalType": "uint256",
          "name": "_id",
          "type": "uint256"
        },
        {
          "internalType": "bool",
          "name": "_done",
          "type": "bool"
        }
      ],
      "name": "markDone",
      "outputs": [],
      "payable": false,
      "stateMutability": "nonpayable",
      "type": "function"
    },
    {
      "constant": false,
      "inputs": [
        {
          "internalType": "uint256",
          "name": "_id",
          "type": "uint256"
        }
      ],
      "name": "deleteTask",
      "outputs": [],
      "payable": false,
      "stateMutability": "nonpayable",
      "type": "function"
    }
  ],
  "bytecode": "0x608060405234801561001057600080fd5b5060006001819055506107bd806100286000396000f3fe608060405234801561001057600080fd5b50600436106100575760003560e01c8063560f31921461005c578063672385621461008a578063708d0164146101455780638d9776721461017f578063e6e462381461023f575b600080fd5b6100886004803603602081101561007257600080fd5b810190808035906020019092919050505061025d565b005b610143600480360360208110156100a057600080fd5b81019080803590602001906401000000008111156100bd57600080fd5b8201836020820111156100cf57600080fd5b803590602001918460018302840111640100000000831117156100f157600080fd5b91908080601f016020809104026020016040519081016040528093929190818152602001838380828437600081840152601f19601f8201169050808301925050505050505091929192905050506102a9565b005b61017d6004803603604081101561015b57600080fd5b8101908080359060200190929190803515159060200190929190505050610407565b005b6101ab6004803603602081101561019557600080fd5b8101908080359060200190929190505050610596565b604051808581526020018060200184815260200183151515158152602001828103825285818151815260200191508051906020019080838360005b838110156102015780820151818401526020810190506101e6565b50505050905090810190601f16801561022e5780820380516001836020036101000a031916815260200191505b509550505050505060405180910390f35b61024761066b565b6040518082815260200191505060405180910390f35b6000808281526020019081526020016000206000808201600090556001820160006102889190610671565b60028201600090556003820160006101000a81549060ff0219169055505050565b6001600081548092919060010191905055506040518060800160405280600154815260200182815260200142815260200160001515815250600080600154815260200190815260200160002060008201518160000155602082015181600101908051906020019061031b9291906106b9565b506040820151816002015560608201518160030160006101000a81548160ff0219169083151502179055509050507fa57b0ecf725d7cd4c8d7402ce7027df112b6929d38ee03b86cbae2c76c8f76c260015482426000604051808581526020018060200184815260200183151515158152602001828103825285818151815260200191508051906020019080838360005b838110156103c75780820151818401526020810190506103ac565b50505050905090810190601f1680156103f45780820380516001836020036101000a031916815260200191505b509550505050505060405180910390a150565b60008211801561041957506001548211155b61042257600080fd5b61042a610739565b60008084815260200190815260200160002060405180608001604052908160008201548152602001600182018054600181600116156101000203166002900480601f0160208091040260200160405190810160405280929190818152602001828054600181600116156101000203166002900480156104ea5780601f106104bf576101008083540402835291602001916104ea565b820191906000526020600020905b8154815290600101906020018083116104cd57829003601f168201915b50505050508152602001600282015481526020016003820160009054906101000a900460ff161515151581525050905081816060019015159081151581525050806000808581526020019081526020016000206000820151816000015560208201518160010190805190602001906105639291906106b9565b506040820151816002015560608201518160030160006101000a81548160ff021916908315150217905550905050505050565b6000602052806000526040600020600091509050806000015490806001018054600181600116156101000203166002900480601f0160208091040260200160405190810160405280929190818152602001828054600181600116156101000203166002900480156106485780601f1061061d57610100808354040283529160200191610648565b820191906000526020600020905b81548152906001019060200180831161062b57829003601f168201915b5050505050908060020154908060030160009054906101000a900460ff16905084565b60015481565b50805460018160011615610100020316600290046000825580601f1061069757506106b6565b601f0160209004906000526020600020908101906106b59190610763565b5b50565b828054600181600116156101000203166002900490600052602060002090601f016020900481019282601f106106fa57805160ff1916838001178555610728565b82800160010185558215610728579182015b8281111561072757825182559160200191906001019061070c565b5b5090506107359190610763565b5090565b60405180608001604052806000815260200160608152602001600081526020016000151581525090565b61078591905b80821115610781576000816000905550600101610769565b5090565b9056fea265627a7a7231582075ea495285fbaa2f13d8aaca1cf3adfcd264d5d26b86db1a84d88d30dcf75b0564736f6c63430005100032",
  "source": "// SPDX-License-Identifier: MIT\r\npragma solidity >=0.4.22 <0.8.0;\r\n\r\ncontract Todo {\r\n    struct Task {\r\n        uint256 id;\r\n        string task;\r\n        uint256 dateTimeCreated;\r\n        bool done;\r\n    }\r\n\r\n    event TaskCreated(\r\n        uint256 id,\r\n        string task,\r\n        uint256 dateTimeCreated,\r\n        bool done\r\n    );\r\n\r\n    mapping(uint256 => Task) public tasks;\r\n\r\n    uint256 public idCount;\r\n\r\n    constructor() public {\r\n        idCount = 0;\r\n    }\r\n\r\n    function addTask(string memory _task) public {\r\n        idCount++;\r\n        tasks[idCount] = Task(idCount, _task, block.timestamp, false);\r\n        emit TaskCreated(idCount, _task, block.timestamp, false);\r\n    }\r\n\r\n    function markDone(uint256 _id, bool _done) public {\r\n        require(_id > 0 && _id <= idCount);\r\n        Task memory _task = tasks[_id];\r\n        _task.done = _done;\r\n        tasks[_id] = _task;\r\n    }\r\n\r\n    function deleteTask(uint256 _id) public {\r\n        delete tasks[_id];\r\n    }\r\n}\r\n",
  "sourcePath": "Z:/Sample Projects/EthereumAngularTodoList/EthereumTodoList/contracts/Todo.sol",
  "compiler": {
    "name": "solc",
    "version": "0.5.16+commit.9c3226ce.Emscripten.clang"
  },
  "schemaVersion": "3.2.3",
  "updatedAt": "2020-08-29T07:04:22.642Z",
  "networkType": "ethereum",
  "devdoc": {
    "methods": {}
  },
  "userdoc": {
    "methods": {}
  }
}